:020000040800F2
:1000000080610020D5030008D326000839250008A8
:10001000D126000817210008052F00080000000065
:1000200000000000000000000000000015030008B0
:10003000A52200080000000071030008992B0008A9
:10004000EF030008EF030008EF030008EF030008C8
:10005000EF030008EF030008EF030008EF030008B8
:10006000EF030008EF030008EF030008EF030008A8
:10007000EF030008EF030008EF030008EF03000898
:10008000EF030008EF030008EF030008EF03000888
:10009000EF030008EF030008EF030008EF03000878
:1000A000EF030008EF030008EF030008EF03000868
:1000B000EF030008EF030008EF030008EF03000858
:1000C000EF030008EF030008EF030008EF03000848
:1000D000EF030008EF030008112D0008EF030008EC
:1000E000EF030008EF030008EF030008EF03000828
:1000F000EF030008EF030008EF030008EF03000818
:10010000EF030008EF030008EF030008EF03000807
:10011000EF030008EF030008092C0008EF030008B4
:10012000EF030008EF030008EF030008EF030008E7
:10013000EF030008EF030008EF030008EF030008D7
:10014000EF030008EF030008EF030008EF030008C7
:10015000EF030008EF030008EF030008EF030008B7
:10016000EF030008EF030008EF030008EF030008A7
:10017000EF030008EF030008EF030008EF03000897
:10018000EF030008EF03000800F002F800F0B2F8F7
:100190000AA090E8000C82448344AAF10107DA45E2
:1001A00001D100F0A7F8AFF2090EBAE80F0013F082
:1001B000010F18BFFB1A43F001031847207300001A
:1001C000407300000A444FF0000C10F8013B13F09C
:1001D000070408BF10F8014B1D1108BF10F8015BA0
:1001E000641E05D010F8016B641E01F8016BF9D193
:1001F00013F0080F1EBF10F8014BAD1C0C1B09D1EA
:100200006D1E58BF01F801CBFAD505E014F8016B5B
:1002100001F8016B6D1EF9D59142D6D370470000ED
:100220000023002400250026103A28BF78C1FBD8FF
:10023000520728BF30C148BF0B6070476E2900F0DD
:10024000A884702900F0EB81662906F0CE83652929
:1002500006F0CB83672906F0C883612906F0C783BF
:1002600003681B0A28BF41F08001692900F05C8106
:10027000642900F05981752900F056816F2900F03A
:10028000A885782900F0B781E92900F04385E429A1
:1002900000F04085F52900F03D85EF2900F0A585A7
:1002A000F82900F0B6810368DB0928BF41F080011E
:1002B000632900F0B284732900F0B784E32901F0C8
:1002C000F181F32901F0F681002070471FB506F097
:1002D00087FB01F08BFA04000020002106F054FB9C
:1002E000401C60600020002106F064FBE0601FBD40
:1002F00010B510BD01F055FA1146FFF7E7FF04F005
:1003000087F801F037FB03B4FFF7F2FF03BC02F0FC
:100310005AFF00002C4B19680868B0E8F04F80F3D2
:100320000988BFF36F8F4FF0000080F3118870478A
:100330000000000008480068006880F308884FF05B
:10034000000080F3148862B661B6BFF34F8FBFF32D
:100350006F8F00DF00BF00BF08ED00E0DFF80C008A
:10036000016841F470010160704700BF88ED00E052
:10037000EFF30980BFF36F8F134B1A681EF0100F55
:1003800008BF20ED108A20E9F04F106009B44FF04B
:10039000500080F31188BFF34F8FBFF36F8F05F0CC
:1003A000D3FC4FF0000080F3118809BC196808687D
:1003B000B0E8F04F1EF0100F08BFB0EC108A80F3C9
:1003C0000988BFF36F8F704754000020EFF305805A
:1003D000704700000948804709480047FEE7FEE7EC
:1003E000FEE7FEE7FEE7FEE7FEE7FEE7FEE7FEE7E5
:1003F00004480549054A064B70470000AD2B00082C
:1004000089010008805B002080610020805D002061
:10041000805D0020704700001CB50C46064B7B44F5
:1004200069460090204600F0CEFB04460020694655
:1004300000F0DCFB20461CBDCB0700007CB51D4650
:1004400016460C00009001D02044401E074B7B4410
:100450002A4669460190304600F0B5FB05461CB1BE
:100460000020694600F0C2FB28467CBDA5070000BD
:100470000FB4044910B503AA029800F0DBFB10BCCE
:100480005DF814FB4000002070B5044685690068E3
:10049000C10601D5302600E02026C00707D070BD78
:1004A000D4E9012130469047206A401C20626D1E2D
:1004B000F6D570BD70B5044685690078C00707D1D0
:1004C00070BDD4E9012120209047206A401C2062A1
:1004D0006D1EF6D570BD70B50C460546012A05D0D7
:1004E0002878800600D5EA69002302E0012305E0B0
:1004F0005B1C934202D2E05C0028F9D1A869E6189F
:10050000C01AA861286A184428622846FFF7BCFF71
:1005100004E0D5E9012114F8010B9047B442F8D367
:100520002846FFF7C7FF70BD2DE9F04106460024BD
:1005300010687529314616A510D000F0BFFA0028C2
:1005400002DA404213A507E031688A0701D512A5F7
:1005500002E0490704D511A5012401E000F0B7FA33
:1005600000210A2206F1240709E0B0FBF2FCB0FBEF
:10057000F2F302FB1C00303078541846491C002866
:10058000F3D123462A463046BDE8F04100F0A8BA30
:10059000000000002D0000002B00000020000000E3
:1005A000F0B40D460188090502D5214C7C4402E0D7
:1005B0001F4C7C440E34002100F1240608E002F0B8
:1005C0000F071209E75D42EA03721B097754491CC1
:1005D00052EA0307F3D102780023120704D5702DE5
:1005E00006D009B1022311342246F0BC00F078BADB
:1005F00001231034F8E770B504460D462146106813
:1006000000F065FA024629462046BDE87040002306
:10061000C6E7D21D22F00703D3E90023C0E7036831
:10062000126843F0200303600823C3610023B7E787
:10063000106B00002DE9F05F894604464FF0000A78
:10064000DFF874B1FB44C0F820A02046E168884779
:10065000002874D0252806D0D4E901219047206ACB
:10066000401C2062F1E700265F462046E16888478B
:100670002028054607DB312D05D2781910F8200C0B
:1006800008B10643F1E7B00701D526F00406C4F827
:100690001CA00027C4F818A02A2D09D0284602F073
:1006A0008BFD38B304EB8708303DC8F8185019E0CB
:1006B00059F8041B204604EB87029161E1688847E2
:1006C000012F054618D1E069002820DA26F020061F
:1006D0001DE0D8F8180000EB800005EB4000303832
:1006E000C8F818002046E1688847054602F064FD16
:1006F0000028EED1012F0AD02E2D08D12046E16826
:1007000088477F1C0546022F46F02006C4DBA069FF
:10071000002803DA404246F00106A061F00701D04C
:1007200026F010066C2D0BD0682D09D04C2D39D039
:100730006A2D35D0742D35D07A2D33D016E038E0BF
:10074000E1682F4620468847B842054609D16C2FFC
:1007500026D04FF48060E16806432046884705466E
:1007600004E06C2F1AD04FF4807006430DB3A5F14E
:100770004100192802D8203546F400664A46294629
:10078000204626604E46FFF759FD80B101280BD068
:10079000F61D26F0070000F1080956E74020E4E7BF
:1007A0008020D8E70020D6E706F104094DE7284667
:1007B00052E7206ABDE8F09FA06A000070B50646C7
:1007C00000F078F90468054630460A22002100F05E
:1007D00017FB2C6070BD10B5431C02E010F8011B24
:1007E00071B18107FAD14FF0013202C88C1A8C43E3
:1007F00014EAC211F9D0C01A0A0603D0C01E10BDF7
:10080000C01A10BD0A0401D0801E10BD0902FCD020
:10081000401E10BD40EA010370B59B072ED14FF07A
:100820000136042A2AD308C810C99D1B9D43121FF4
:1008300015EAC61517D0D8B2E1B2401A50EA0561E0
:1008400010D198B2A1B2401A50EA05410AD123F062
:100850007F4024F07F41401A50EA052102D1180E52
:10086000A0EB146070BDA342DBD018BA21BA884255
:1008700001D9012070BD4FF0FF3070BD0AB90020D2
:1008800070BD10F8013B11F8014B63B1A3420AD1CE
:10089000521E08D010F8013B11F8014B1BB1A342C6
:1008A00001D1521EEDD1181B70BD032A40F23080D9
:1008B00010F0030C00F0158011F8013BBCF1020FA1
:1008C000624498BF11F801CB00F8013B38BF11F822
:1008D000013BA2F1040298BF00F801CB38BF00F839
:1008E000013B11F0030300F0C382083AC0F0088016
:1008F00051F8043B083A51F804CBA0E80810F5E79A
:10090000121D5CBF51F8043B40F8043BAFF300807C
:10091000D20724BF11F8013B11F801CB48BF11F8F1
:10092000012B24BF00F8013B00F801CB48BF00F8C1
:10093000012B704702F0FF0343EA032242EA02421E
:1009400000F002B84FF000020429C0F0128010F04D
:10095000030C00F01B80CCF1040CBCF1020F18BF9B
:1009600000F8012BA8BF20F8022BA1EB0C0100F02E
:100970000DB85FEAC17C24BF00F8012B00F8012B01
:1009800048BF00F8012B70474FF0000200B5134636
:1009900094469646203922BFA0E80C50A0E80C509F
:1009A000B1F12001BFF4F7AF090728BFA0E80C5050
:1009B00048BF0CC05DF804EB890028BF40F8042B49
:1009C00008BF704748BF20F8022B11F0804F18BFB6
:1009D00000F8012B704710B5044610F0030F08BF54
:1009E00011F0030F40F015804FF0013E121FC0F2CE
:1009F0000E8051F8043BA3EB0E0C2CEA030C1CEA0E
:100A0000CE1C08BF40F8043BF0D0A1F1040102F174
:100A10000402521E08DB11F8013B002B00F8013BD9
:100A2000F7D11146FFF78EFF204610BD4FF0013C75
:100A300050F8042B51F8043B9A4221D1A2EB0C034D
:100A4000934313EACC1317D150F8042B51F8043B0D
:100A50009A4215D1A2EB0C03934313EACC130BD1AA
:100A600050F8042B51F8043B9A4209D1A2EB0C0335
:100A7000934313EACC13DBD04FF00000704700BF64
:100A8000D01A01BAB1FA81F101F0180122FA01F08D
:100A9000CB40C1F12001DBB2C0B2C01A2CFA01F385
:100AA000D11A914311EAC311E6D1704770477047DC
:100AB0007047704700487047205B002009684A056E
:100AC00001D540B27047C905FCD500B2704709682E
:100AD0004A0501D5C0B27047C905FCD580B2704740
:100AE0002DE9F0470D4699469246044600F1240848
:100AF0000168880604D5E06921F01001216000E05A
:100B00000120A84201DD471B00E00027A1697A19F6
:100B100002EB0900081AA0612078C00602D4204622
:100B2000FFF7B2FC002608E0D4E901211AF806001C
:100B30009047206A401C761C20624E45F4DB2078EA
:100B4000C0060AD52046FFF79FFC06E0D4E9012144
:100B500030209047206A401C2062381EA7F1010710
:100B6000F4DC07E0D4E9012118F805009047206A79
:100B7000401C2062281EA5F10105F3DC2046FFF78A
:100B800099FC2078000602D50220BDE8F0870120FC
:100B9000FBE711680268006A530501D508700AE096
:100BA000D30501D5088006E0130603D5C217C1E9B5
:100BB000000200E0086001207047000001694A1C43
:100BC00002610878704700B58FB0CDE9013100218E
:100BD000059105497944CDE9031011466846FFF7B0
:100BE00029FD0FB000BD0000E5FFFFFF0A6802F815
:100BF000010B0A607047D1E900239A4202D2531CCC
:100C00000B601070704710B5436913B1AFF30080EB
:100C100001E0FFF760FC012010BD127800F1240113
:100C20000A7000224A700122EDE711684FF0FF328E
:100C3000E9E70000074B70B50D467B44FFF7C3FFA3
:100C40000446284600F089FD10B14FF0FF3070BD1A
:100C5000204670BD133400002DE9FF5F15468A461B
:100C60000446DFF8AC80F8440027D8E900103E467F
:100C7000CDE9001010E03AF816106A4602A800F01C
:100C800070FD411C07D02178890603D5E269391827
:100C900091420DD80744761C2078800602D5E06981
:100CA000B84205DDAE42E6DB3AF816000028E2D194
:100CB000A069C01BA0612046FFF7E6FBD8E9001041
:100CC000CDE90010002017E03AF818106A4602A893
:100CD00000F047FDB0F1FF3F81460BD000250DF13C
:100CE000080B05E0D4E901211BF8050090476D1CB5
:100CF0004D45F7D308F10100B0428046E4DB206A9D
:100D0000384420622046FFF7D5FBBDE8FF9F000076
:100D1000926400002DE9F0418046D21D22F00702C6
:100D20000025D2E90002F52915A614D0011E72F1A2
:100D3000000106DA0023D0EB030063EB020211A6E8
:100D400008E0D8F800108B0701D50FA602E049078C
:100D500001D50EA601251146002408F1240704E060
:100D600000F0C4F830323A55641C50EA0102F7D161
:100D70002B46324621464046BDE8F041FFF7B0BE63
:100D8000000000002D0000002B00000020000000EB
:100D900030B4002100F1240408E002F00705D20875
:100DA000303542EA4372DB086554491C52EA0305B8
:100DB000F3D10468002310A2250707D5A40600D4A8
:100DC00021B1C46901230DA2641EC46130BCFFF7C8
:100DD00087BE10B5044621461068FFF778FE02462C
:100DE0002046BDE810400023D2E7D21D22F00701C3
:100DF000D1E90023CCE70000000000003000000033
:100E00002DE9F04791460F4680460446002614F827
:100E1000015B2DB100F062F80068405DC007F6D1BB
:100E20002B2D02D02D2D18D0641E4A46394620465F
:100E300000F044FC27B13968A14201D1C7F8008015
:100E40004FF0020471050BD54042002803DDFFF787
:100E500031FE0460A007BDE8F08746F48066E4E751
:100E60000028F8DAFFF726FE04606FF00040F2E792
:100E700010B5203AC0F00B80B1E81850203AA0E835
:100E80001850B1E81850A0E81850BFF4F5AF5FEA69
:100E9000027C24BFB1E81850A0E8185044BF18C91C
:100EA00018C0BDE810405FEA827C24BF51F8043BC3
:100EB00040F8043B08BF7047D20728BF31F8023B17
:100EC00048BF11F8012B28BF20F8023B48BF00F8AB
:100ED000012B704700487047205B002010B500F0E0
:100EE00085FC001D10BD00BFA15A000030B5B0F157
:100EF0000A024FEA900E71F100034EEA817EB0EBD8
:100F00000E0061EB91014FEA101E4EEA017E10EBDC
:100F10000E0041EB11114FEA102E4EEA016E10EB5C
:100F20000E0041EB11214FEA104E4EEA014E10EB3C
:100F30000E0041EB1141401841F100014FEAD00091
:100F400040EA41704FEAD10110EB80054FEA81047D
:100F500044EA907444EB01046D1944EB0404521B01
:100F6000A3414FF0000348BF0A3200D530BD401CFA
:100F700041F1000130BD70472DE9FF4F0C461E4680
:100F80004FF0FF378BB0D2E90001DDF860800A90A6
:100F90008A46C1F30A5505B93D46002108464FF07F
:100FA0000000BAF1000F00F4400005DA00EB800009
:100FB0004FF4400101EA50004FEA9059B9F1010F96
:100FC00000DDB9460A9850EA4A000ED044F61050A7
:100FD000A5F2FF3545432F14B8F1000F1ED075421E
:100FE000291E1EDDC9F100021CE0B8F1010F4FF00F
:100FF000000001D0302103E0F24305E02154401C01
:10100000B042FBDB30460022002121540B99C1F88D
:101010000880C1E900200FB0BDE8F08FBD1B6D1C3A
:10102000DEE74A4600DA694206A800F031FC06AB6A
:1010300093E8070003AB83E8070050460A9900F0E5
:10104000A2FC8DE80700A0F500501F38009003981F
:10105000002D0ADD42F21F014A460844002303A97D
:101060000390684600F00BFF09E0A0F500504A46E7
:101070001F38002303A90390684600F015FF8DE890
:1010800007000004000C03D04FF0FF30410800E0DF
:101090001046B8F1000F03D00022009215461EE062
:1010A000751E05D4FFF722FF303262556D1EF9D54B
:1010B000B3460122084302D000227F1C04E02078BE
:1010C000302801D100227F1E002A099784D01DE01C
:1010D000112D07DAFFF70AFF303262556D1C50EA16
:1010E0000102F5D1084302D00098C8B10EE00021FA
:1010F000681E05E0235C625C63542254401E491C58
:101100008142F7DBAB46A81B401E0990002004F883
:101110000B000B98099AC0F80880C0E9002B7AE709
:1011200011264FF0000857E72DE9F04F8846044696
:10113000D21D22F0070191B0D1E90001CDE90A01E9
:1011400002F022F802460B98C00F01D02D2007E0D4
:101150002068810701D52B2002E0202101EAC00090
:10116000032A099001D0072A05DB034641462046A1
:1011700000F040FB0BE12078800601D5E06900E03B
:101180000620B8F1650F814606D0B8F1660F18D079
:10119000B8F1670F70D131E00020B9F1110F009064
:1011A00001DB112301E009F101030AAA01A90CA83E
:1011B000FFF7E2FEDDE90C70002609F10105834628
:1011C00047E001204B4600904FF000470AAA01A9D2
:1011D0000CA8FFF7D1FEDDE90DB00C995D460026A5
:1011E00010B909F101000D18B9EB050003D4C0F1E5
:1011F000FF3609F10105A5EB09002BE0B9F1010F5C
:1012000001DA4FF001090020B9F1110F00904846B2
:1012100001DD112300E003460AAA01A90CA8FFF78B
:10122000ABFEDDE90C704D460026834620780007B2
:101230000AD4AB4500DA5D4601A8012D04DD411951
:1012400011F8011C302907D04F4502DA17F1040FBD
:1012500004DA012082460FE06D1EEEE7002F02DC6B
:10126000ED1B3E4403E0781CA84200DD7D1CB81B4A
:1012700000F1010A4FF000472078000703D4AA4587
:1012800001DB4FF0FF3A0021B7F1004F0DF14308A9
:101290008DF8431024D002202B23002F01DA7F4247
:1012A0002D230A21021EA0F1010000DC5FB197FB93
:1012B000F1FC97FBF1F201FB1C7C17460CF1300CA2
:1012C00008F801CDEEE7A8F10100037021880905B7
:1012D00001D5452100E06521A0F1010800F8011CBD
:1012E00009980FA9A1EB0807FF1D00B101204119C2
:1012F00001EBEA70A1693844081A401EA061207809
:10130000C00602D42046FFF7BFF8099828B1D4E9F7
:1013100001219047206A401C20622078C00622D517
:101320002046FFF7B1F81EE0002E04DBB34502DDD6
:1013300001A8805D00E03020D4E901219047206AB7
:10134000401C2062761CAAF101005FEA000A0AD163
:1013500000F04CFAC0680168405CD4E90121904774
:10136000206A401C2062281EA5F10105DCDC07E094
:10137000D4E9012118F8010B9047206A401C206233
:10138000381EA7F10107F3DC2046FFF793F803208E
:1013900011B041E62DE9F04F04460D46D21D22F072
:1013A000070089B0D0E900974846394601F0ECFEC5
:1013B0000246F80F01D02D2307E02068810701D5F0
:1013C0002B2302E0202101EAC0038DF820300BB16D
:1013D000012000E00020032A824601D0072A04DB16
:1013E0002946204600F006FA3FE12078800601D425
:1013F0000D2500E0E569C7F30A560D2D49DA0021F5
:101400004FEA175B08464FF00000002F00F4400041
:1014100007DA00EB80004FF4400100EBD07001EAE6
:1014200060008115012901DD4FF0FF3100224FEAF4
:10143000850CBCF1180F06D31346ACF118004FF021
:101440008052C24003E04FF4801323FA0CF30CF1F6
:101450000C0CBCF1200F04D3ACF1200C09FA0CF0F9
:1014600001E007FA0CF000294FF0004801DD18B93F
:101470000FE00ED140450CD319EB02095F4121B9B1
:10148000404502D19F4329EA0209BBEB175F00D018
:10149000761C2088000502D57B48784402E07A4813
:1014A0007844193808AA302302F80A30037C0AF17C
:1014B0000101002E0AF1020A53546A4602DC4FF081
:1014C000300101E04FF031014FF001088DF80010BC
:1014D00002D0A6F2FF3603E059EA470100D06B4E76
:1014E000002D02DC2178090704D54FF002082E21D7
:1014F0008DF80110C44600210BE0C7F303433F0100
:10150000C35C491C6D1E02F80830052908F101086A
:1015100001DA002DF1DC00210CE000EB1973491C0D
:101520001B786D1E082902F808304FEA091908F1E6
:10153000010801DA002DF0DC21688B0602D516E0E7
:10154000A8F10108E04505DD02EB080313F8013CB2
:10155000302BF5D0B8F1000F09DD02EB080313F8CA
:10156000013C2E2B03D1090701D4A8F10108002D5D
:1015700005DD3E2102F808106D1E08F10108407CCF
:10158000002E02F8080008F1010804DA2D20764246
:1015900002F8080002E02B2002F808000A214FF4AC
:1015A0007A70864208F101080BDB96FBF0F33033CA
:1015B00002F8083096FBF0F308F1010800FB13660F
:1015C00001E0642E0CDB642096FBF0F3303302F86C
:1015D000083096FBF0F308F1010800FB136601E008
:1015E0000A2E06DB96FBF1F0303002F8080008F115
:1015F000010896FBF1F001FB1060303002F80800A2
:10160000A16908F1010808EB050202EB0A00081ABB
:10161000A0612078C00602D42046FEF735FF216A7B
:1016200008AE01EB0A00206204E0D4E9012116F8BB
:10163000010B9047BAF1010AF7D22078C00602D513
:101640002046FEF721FF6E4609E016F8010B3E2802
:101650000FD0D4E901219047206A401C2062B8F1E4
:101660000108F2D22046FEF725FF09B00320BDE8AD
:10167000F08F206A2844206203E0D4E90121302061
:1016800090476D1EEBD3F8E7795C000002FCFFFF8A
:1016900010B5436913B1AFF3008001E0FFF7DCFA46
:1016A000012010BD128800F1240182840022C2842E
:1016B0000122EDE711684FF0FF32E9E72DE9F05F15
:1016C000824615468B4600270AF10104B946007888
:1016D000302801D09DB113E014F8010B01277828C0
:1016E00003D0582801D045B10AE00DB1102D07D123
:1016F000002714F8010B102502E0082500E00A2558
:101700000026B0460EE005FB080005FB06F10127A8
:101710001FFA80F801EB1046B6F5803F00D3B946BA
:1017200014F8010B294600F0A5F80028EBDABBF10C
:10173000000F05D00FB1641E00E05446CBF8004006
:10174000B9F1000F06D0FFF7B5F902210160C81EFC
:10175000BDE8F09F48EA0640FAE7007B00F0800011
:10176000704770B516460C460546FFF7B7FB036891
:1017700093F80101012806D0FF2C0FD8185D68B13D
:1017800001202C7070BDD3F807013246214603F2C8
:10179000071303442846BDE8704018474FF0FF3058
:1017A00070BD7546FFF796FBAE4605006946534689
:1017B00020F00700854618B020B5FEF719FEBDE8F9
:1017C00020404FF000064FF000074FF000084FF0A8
:1017D000000B21F00701AC46ACE8C009ACE8C00939
:1017E000ACE8C009ACE8C0098D46704700487047B6
:1017F000405B00202DE9F0411F46044603260168A6
:10180000072A01F4006004DB08B116A505E016A55F
:1018100003E008B115A500E015A521F01000206037
:10182000A069C01EA0610FB1401EA0612046FEF756
:101830002BFE4FB1D4E9012138469047206A401C65
:101840002062C01C206206E0206AFAE7D4E9012188
:1018500015F8010B9047761EF8D22046FEF72AFEB7
:10186000BDE8F0814E414E006E616E00494E46006B
:10187000696E66003A2800D2303820F02002412AF2
:1018800001D3A2F13700884201D34FF0FF307047F7
:101890002DE9F047814616468AB0354878440DC890
:1018A0008DE80D0032487844801C03AC0DC884E8F4
:1018B0000D0041F69B300844372190FBF1F290FB7C
:1018C000F1F5A5F1800501FB12041B3C02D5644231
:1018D000012000E00020DFF898A080460027FA44AD
:1018E000AAF1BE0A0EE0E0070AD03246684607EBCE
:1018F000470101230AEB810100F0D6FA8DE80700C9
:1019000064107F1C002CEED1194F7F44AE3F19E0CC
:10191000E80715D007EB04100DF1180A90E80E0047
:101920008AE80E00C068F04201D19819089032464A
:10193000012306A903A800F0B7FA03AB83E8070068
:101940006D10641C002DE3D14FF00103324669464F
:10195000B8F1000F03A802D000F091FA01E000F006
:10196000A3FAC9E90001C9F808200AB0BDE8F08768
:101970000859000010B50446AFF300802046BDE8CA
:101980001040FEF7C0BC5FEA400C08BF91F0000FAA
:101990004FEA8C234FEAC12243EA51514FEA1C50CF
:1019A00018BF00F5F0404FEA300018BF41F0004189
:1019B0005FEA6C5C00F02980BCF1FF3F08BF40F09B
:1019C00080407047130C06BF12044FF0100C4FF00C
:1019D000000C130E04BF12020CF1080C130F04BF0D
:1019E00012010CF1040C930F04BF92000CF1020CD5
:1019F000D30F04BF52000CF1010C11464FF000024E
:101A0000A0F11F00A0EB0C00704711F0004F08BFC1
:101A1000704731F000413FF4D5AF0B0C06BF09040D
:101A20004FF0100C4FF0000C0B0E04BF09020CF12C
:101A3000080C0B0F04BF09010CF1040C8B0F04BF41
:101A400089000CF1020CCB0F04BF49000CF1010C12
:101A5000CCF12003A0EB0C0022FA03F302FA0CF203
:101A600041EA030100F10100704720F07F4C80EA59
:101A7000030023F07F47ACEB070303F57C5300F032
:101A8000004003F1FF032DE980494FEA154B09B4EB
:101A90004FEA144325EA0B4E24EA03480FF20426CA
:101AA00006EB132749083E785FEA320203FB06671C
:101AB000C7F5000707FB06F64FEA54374FEAD6464C
:101AC00006F1020607FB066CCCF1005C4FEA1C47EE
:101AD0002CEA074C07FB06F40CFB06F504EB154655
:101AE0004FEA961634BF00204FF000404FEAD1373E
:101AF00006FB07FC4FEA1C4C0CFB0BF7D21B03FB4D
:101B00000CF761EB07010CFB0EF7B0EB074072EB33
:101B100017420CFB08F734BFA2EB0742B2EB0742B7
:101B200061EB17414FEA0C444FEA910706FB07FCB3
:101B30004FEA1C4C0CFB0BF7B0EBC74072EB573273
:101B400003FB0CF734BFA2EBC742B2EBC74261EB19
:101B500057310CFB0EF7B0EBC70072EB57720CFB62
:101B600008F734BFA2EBC702B2EBC70261EB5771B3
:101B7000039F4FEA816141EA921104EBCC044FEAE2
:101B8000D1374FEA826206FB07FC42EA90124FEA25
:101B900080604FEA1C4C0CFB0BF7D21B03FB0CF7CD
:101BA00061EB07010CFB0EF7B0EB074072EB17423D
:101BB0000CFB08F734BFA2EB0742B2EB074261EB24
:101BC00017414FEA8C554FEA910704EB9C2406FB22
:101BD00007FC4FEA1C4C0CFB0BF7B0EBC74072EB59
:101BE000573203FB0CF734BFA2EBC742B2EBC7423C
:101BF00061EB57310CFB0EF7B0EBC70072EB57727D
:101C00000CFB08F734BFA2EBC702B2EBC70261EBD3
:101C1000577115EB4C254FEA816141EA92114FEA69
:101C200082624FEAD13742EA901206FB07FC44F188
:101C300000044FEA80604FEA1C4C0CFB0BF7D21BF0
:101C400003FB0CF761EB07010CFB0EF7B0EB074051
:101C500072EB17420CFB08F734BFA2EB0742B2EB62
:101C6000074261EB174115EB1C154FEA813141EA40
:101C700092414FEA823242EA90424FEA80304FEA84
:101C80000C7644F1000448EA03434EEA0B484FF057
:101C9000000EB2EB080C71EB030724BF6246394615
:101CA0004EEB0E0E4FF0000B0018524149414BEB2A
:101CB0000B0BB2EB080C71EB03077BF1000B24BF9D
:101CC000624639464EEB0E0E4FF0000B00185241A3
:101CD00049414BEB0B0BB2EB080C71EB03077BF1AB
:101CE000000B24BF624639464EEB0E0E51EA020746
:101CF00018BF46F0010616EB0E7655F1000254F1BE
:101D0000000103D5BDE88901BDE80088BDE889016F
:101D1000BDE80048B619524141EB0101A3F10103AE
:101D2000704780807F7E7D7C7B7A79787776767548
:101D30007473727171706F6E6E6D6C6C6B6A6A69C0
:101D40006868676666656464636362616160605F5A
:101D50005F5E5E5D5D5C5C5B5B5A5A5959585857D3
:101D6000575656555555545453535252525151503B
:101D700050504F4F4F4E4E4D4D4D4C4C4C4B4B4B8E
:101D80004A4A4A49494948484847474747464646D4
:101D9000454545444444444343434342424242410F
:101DA0004141002B9C4630D477002BD01CB54FEA24
:101DB000370703B44FF010004FF01001BAF1000FD5
:101DC00006D0BCF1000FDCBF40F0080040F0080175
:101DD0004FF000000FBCBDE810400BF1010BBBF150
:101DE000010F08BF5FEA170722BF12F1010211F1CC
:101DF00001014FF0004143F1000300F0004043EACD
:101E000000007047F9D35708D0E746EA064613F1B9
:101E1000400F4FEA16461FDD13F1200FDFBF1643B8
:101E20000A46002120335B42BED0C3F1200746EAB8
:101E3000064602FA07F74FEA164646EA0706C3F1D6
:101E4000200722FA03F201FA07F721FA03F14FF013
:101E5000000342EA0702A7E746EA020646EA064608
:101E60004FEA164646EA0106BCBF46EA0646360C6D
:101E70004FF000034FF000024FF0000194E72DE90E
:101E8000804C9A46934670B491E8380007C831EA0E
:101E9000400C48BF34EA430C03D5FFF7E6FDFFF7DB
:101EA00080FFF0BCBDE8008C2DE9804C9A4693463B
:101EB00070B491E8380007C810F0804F08BF13F0E5
:101EC000804F03D100F005F8FFF76BFFF0BCBDE8D1
:101ED000008C20F07F4780EA030023F07F4C07EB63
:101EE0000C03A3F57C5300F00040A3F1FE0392F035
:101EF000000F00F0B38095F0000F00F077802DE91F
:101F000001494FEA11404FEA144621EA004800FB1C
:101F100006FC24EA064708FB06F607FB08F800FB68
:101F200007F718EB06484CEB164C4FEA124B18EB30
:101F300007484FEA15464CEB174022EA0B4E0BFBC5
:101F400006FC25EA06470EFB06F607FB0EFE0BFB1A
:101F500007F71EEB064E4CEB164C4FF000061EEB3F
:101F6000074E4CEB174B18EB0B0840F1000018EB39
:101F70000E0B58EB000840F100008F1A4FF00001E3
:101F80003CBFC943661B14BFB5EB040C00213CBF2A
:101F9000C943F61B4FEA17444EEA8E0E27EA044562
:101FA0004FEA1C4704FB07622CEA074C05FB07F7C6
:101FB0000CFB05F604FB0CFC16EB074642EB174244
:101FC00016EB0C4642EB1C421BEB060658EB0202DA
:101FD000414146EA9E0601D5BDE80189B619524144
:101FE00041EB0101A3F10103BDE801894FEA14456A
:101FF0004FEA114724EA054621EA074C05FB07F49E
:1020000006FB07F70CFB06F105FB0CFC11EB074187
:1020100044EB17444FEA124711EB0C4144EB1C44CC
:1020200022EA074C05FB07F206FB07F70CFB06F656
:1020300005FB0CFC16EB074642EB174216EB0C4671
:1020400042EB1C456A1854F1000148BF7047B619AD
:10205000524141EB0101A3F10103704795F0000FDC
:1020600037D04FEA11424FEA144721EA024624EAE8
:10207000074C02FB07F106FB07F70CFB06F402FB1B
:102080000CFC14EB074441EB17414FEA154714EBE6
:102090000C4441EB1C4125EA074C02FB07F506FB0B
:1020A00007F70CFB06F602FB0CFC16EB074645EBAC
:1020B000174516EB0C4645EB1C42121951F1000175
:1020C00048BF7047B619524141EB0101A3F101032A
:1020D00070474FEA14454FEA114724EA054621EAC2
:1020E000074C05FB07F106FB07F70CFB06F24FF068
:1020F000000605FB0CFC12EB074241EB174112EB0B
:102100000C4251EB1C4148BF7047921841EB010152
:10211000A3F101037047FEE70029016802D041F0F6
:10212000010101E021F00101016070472DE9F04358
:10213000016821F0010101600021016041608160BE
:10214000C1600161212141613C493C4A3D25103972
:10215000904202D18D60BDE8F083384A4FF4746636
:102160001832904201D18E60F5E7344A4FF474176B
:102170003032904201D18F60EDE7304A4FF0746CFD
:102180004832904202D1C1F808C0E4E72B4B2C4AF8
:102190006033984201D1CA60DDE7284C294B78347E
:1021A000A04201D1CB60D6E7DFF89080264C08F141
:1021B0009008404501D1CC60CDE7DFF880804FF03A
:1021C0003D5908F1A808404502D1C1F80C90C2E77A
:1021D0001E49DFF878800839404501D10D60BAE723
:1021E0001A4D1835A84201D10E60B4E7174D3035AD
:1021F000A84201D10F60AEE7144D4835A84202D184
:10220000C1F800C0A7E7114D10496035091FA84269
:1022100001D10A609FE70D4A7832904201D10B60EC
:1022200099E70A4A9032904201D10C6093E7074A3D
:10223000A83290428FD1C1F800908CE71060024024
:102240003D000020400F002000003D2010640240AF
:1022500030B50368124ACC6813400A682243D1E9BA
:1022600005452C432243CC6922430C6A22434C6A25
:1022700022438C6A22434C6B22438C6B22431A43C9
:102280000260426922F00703D1E90B2422431A437A
:1022900042610A6942604A6882608968C16030BDF3
:1022A0003F801CF070470000014908607047000043
:1022B0000C3C024070B50646002529B1012927D003
:1022C000022928D04FF4407500F078F809281ED173
:1022D000124C206820F44070206020682843206061
:1022E000206820F0F8002060206846F002010843D2
:1022F0002060206840F48030206000F05FF82168A2
:1023000021F002012160216821F0F801216070BDF7
:102310004FF48075D8E74FF40075D5E7103C0240C4
:102320000D4909200A68D20301D5012070470A68C7
:10233000D20601D5062070470A68D20501D50220D1
:1023400070470A6812F0EF0F01D007207047096844
:102350008907FBD5082070470C3C024070B50D463C
:10236000064600F02BF8092813D10A4C206820F407
:1023700040702060206840F400702060206840F0C9
:1023800001002060356000F019F8216821F001019A
:10239000216070BD103C024005480068002805DA45
:1023A000034804490C38016003490160704700008C
:1023B000103C024023016745AB89EFCD08B50920E9
:1023C0008DF80000FFF7ACFF8DF800009DF80000CD
:1023D0000128F7D09DF8000008BDF0B500220127C4
:1023E0004FF0030C0B6807FA02F52B40AB422CD1DF
:1023F000066853000CFA03F4A64306600E79D0F881
:1024000000E09E4046EA0E0606600E79012E01D0DD
:10241000022E12D18668A64386604E79D0F808E075
:102420009E4046EA0E0686604668AE4346604568B2
:102430008E799640B6B235434560C568A543C56000
:10244000CC799C40C3681C43C460521C102AC9D379
:10245000F0BD4B07DB0E9A40C90810B500EB8100B8
:10246000016A0F249C40A1430162016A1143016289
:1024700010BD418370470183704700000146002072
:10248000A1F100624FF480439A4204D320480844EB
:10249000984201D2082070471E480844984201D251
:1024A000102070471C480844984201D218207047F9
:1024B0001A480844B0F5803F01D2202070471848E0
:1024C0004FF400320844904201D22820704715484A
:1024D0000844904201D2302070471348084490428B
:1024E00001D23820704711480844904201D2402060
:1024F00070470F480844904201D2482070470D4869
:102500000844904201D25020704758207047000084
:1025100000C0FFF70080FFF70040FFF70000FFF763
:102520000000FEF70000FCF70000FAF70000F8F7E3
:102530000000F6F70000F4F7114906A300201A5C2A
:102540008A800A885206FCD5401CC0B22A28F6D3DD
:10255000FEE700000D0A456E7465722048617264E2
:102560004661756C745F48616E646C65722C2053B3
:10257000797374656D2048616C742E0D0A0000003B
:102580000010014010B5ADF5806D4FF480616846D4
:10259000FEF7FAF90E49684600F0F0FC040010D08E
:1025A0000CA001F039FB03F0C7F9A04204D00CA144
:1025B0000DA001F057FC04E00EA10BA001F052FCAD
:1025C00018B100200DF5806D10BD2046FAE700001F
:1025D0000000010846696C6553697A6500000000D7
:1025E000353035300000000057535049464C4153B8
:1025F0004800000035353535000000002DE9F04772
:102600004FF48037ADF6080D804600267C1103F0AC
:1026100005F882461648CDF8000800F004FAA146F5
:1026200022E021466846FEF7AFF96B46224639465E
:10263000504603F027F838B10EA0FDF719FF03202C
:102640000DF6080DBDE8F0876946A2080DF500609B
:1026500000F004FA20B10CA0FDF70AFF0220EFE71A
:1026600026444C4607F500674645DADB0120E7E7DC
:1026700000000108736675645F72656164206572AD
:10268000726F720D0A00000053544D5F464C415367
:10269000485F5772697465206572726F720D0A0027
:1026A000084910B50868084A1040B0F1005F01D031
:1026B000012010BD4868054A1060096881F3098847
:1026C0008047FEE7000001080000FE2F18000020F0
:1026D000FEE7704730B50F23C27801780125FAB1C3
:1026E000144A126801F1E02102F4E062C2F5E062EE
:1026F000C2F30722C2F10404D3404278A240847896
:102700001C401443220181F80024007800F01F01CE
:102710008D404009800000F1E020C0F8005130BD3C
:1027200001F01F0085404809800000F1E020C0F85A
:10273000805130BD0CED00E00249084302490860B9
:10274000704700000000FA050CED00E0BFF34F8F6A
:1027500004480168044A01F4E06111430160BFF3D9
:102760004F8FFEE70CED00E00400FA05044A002953
:10277000116801D0014300E08143116070470000FF
:1027800030380240044A0029116801D0014300E0BA
:10279000814311607047000040380240044A00291C
:1027A000116801D0014300E08143116070470000CF
:1027B00020380240044A0029116801D0014300E09A
:1027C000814311607047000044380240044A0029E8
:1027D000116801D0014300E081431160704700009F
:1027E0002438024070B5204B1968204C11F00C01C0
:1027F00004D06610042903D0082903D004601BE02C
:10280000066019E0184A121F1168C1F3805511685B
:1028100001F03F0115B1B6FBF1F101E0B4FBF1F1BC
:1028200014681268C4F388146143C2F30142521C55
:102830005200B1FBF2F1016019680F2202EA111196
:102840000B4A545C0168E14041601C68072505EAB9
:102850009424145D21FA04F484601B6805EA533360
:10286000D25CD140C16070BD083802400024F40041
:102870004400002070B50C460546084E08E02021B3
:10288000304600F0A3FA18B1B0882870002070BD5F
:10289000641EF4D24FF0FF3070BD00000010014004
:1028A0002DE9F84F8046002008600E4692461146FA
:1028B0006846FFF7DFFF4FF0FF3970BB9DF800005F
:1028C000182815D006DC012809D0022809D00428D0
:1028D00023D129E0412817D061281ED114E080259A
:1028E00001E04FF48065012488F800006F1D18E0B6
:1028F00051466846FFF7BEFF78B99DF800001828DA
:102900000BD1C6F800900FE00120BDE8F88F08EB6E
:1029100004005146FFF7AEFF08B14846F5E7641CD6
:10292000A4B2BC42F3D335600020EEE70029018851
:1029300002D041F4005101E021F4005101807047C0
:102940000029018802D041F0400101E021F040015E
:10295000018070471A4910B5884202D101218414C0
:1029600024E01849884202D10121041404E01649E8
:1029700088420AD10121C4132046FFF70FFF2046E9
:10298000BDE810400021FFF709BF1049884202D17D
:10299000012144140AE00E49884202D101210C05AC
:1029A00004E00C4988420AD101214C052046FFF77A
:1029B0000DFF2046BDE810400021FFF707BF10BD06
:1029C0000030014000380040003C0040003401402D
:1029D00000500140005401400246002012890A4282
:1029E00000D001207047808970478181704730B5E1
:1029F00002884C8802F441530A88CD8822438C888F
:102A00002C4322430C8922434C8922438C89224344
:102A1000CC8922431A430280828B22F40062828393
:102A2000098A018230BD10B5FFF728FD044608E091
:102A300002212046FFF73EFC092801D0012010BDED
:102A40000834582CF4D9002010BD10B5FFF7A4FCB1
:102A5000BDE81040F320FFF727BC00002DE9F0414E
:102A600017460E4605460024DFF83C8015E056F870
:102A700024102868FFF772FC092802D00120BDE865
:102A8000F081286856F824100068884201D002209E
:102A9000F5E72868001D2860641CBC4202D2296842
:102AA0004145E4D90020EAE7FBFF0F0810B5064CCA
:102AB0000146204600F022FA8021204600F086F9E7
:102AC0000028F9D0002010BD001001400CB50022F4
:102AD000274900920192086840F4803008604FF462
:102AE000A043086800F4003001900098401C00905A
:102AF000019810B900989842F3D10868800334D542
:102B0000012001901A484030026842F08052026071
:102B10001848026842F440420260154808300268D2
:102B20000260026842F400420260026842F4A0526D
:102B30000260031F104A1A600A6842F080720A603D
:102B40000A689201FCD50D4940F205720A600168DD
:102B500021F003010160016841F002010160016898
:102B6000C1F381010229FAD10CBD01920CBD000014
:102B7000003802400070004008544007003C02400A
:102B80004FF0E0210428086903D020F00400086118
:102B9000704740F00400FAE710B503F041FD01284A
:102BA00003D0BDE8104003F0A5BA10BD124810B51F
:102BB000016841F4700101601048016841F00101B1
:102BC00001600E4A00210832116002680C4B1A4065
:102BD0000260031D0B4A1A60026822F48022026020
:102BE00006480C300160FFF771FF03494FF00060A9
:102BF0008039086010BD000088ED00E00038024018
:102C0000FFFFF6FE1030002410B50A4C01212046CB
:102C100000F02BF800280BD007490A68521C0A6004
:102C200000F08CFC2046BDE81040012100F010B8F7
:102C300010BD000000100040240000200029018881
:102C400002D041F0800101E021F080010180704755
:102C5000C943018270470029018802D041F0010177
:102C600001E021F001010180704702460020138A33
:102C700092890B4202EA010202D0002A00D0012010
:102C80007047002A828901D00A4300E08A4382818A
:102C90007047000030B50288164C174DA0420DD089
:102CA000A8420BD0B0F1804F08D0144B984205D009
:102CB000134B984202D0134B984203D122F0700379
:102CC0004A881A43104B984206D0104B984203D0C2
:102CD00022F440730A891A4302804A68C2620A8851
:102CE0000285A04201D0A84201D1897A0186012142
:102CF000818230BD0000014000040140000400401A
:102D000000080040000C004000100040001400408B
:102D100070B51F4C40F225552946204600F05DF85D
:102D200020B3204600F0E6F81A4AC0B2568813884D
:102D300000215B1E9E4217D0138823B95388A3F548
:102D40004076FF3E10D0144B568898555088401C52
:102D500050805088B0F5806F00D3518029462046BE
:102D6000BDE8704000F01AB81180F6E74FF45A75CC
:102D70002946204600F031F8002808D02946204690
:102D800000F02BF82046BDE8704000F0B3B870BDED
:102D9000004400403C000020340200200A0A0121C7
:102DA0009140C943018070470029818902D041F4D4
:102DB000005101E021F4005181817047002A828A8C
:102DC00001D00A4300E08A43828270470246002015
:102DD00012880A4200D00120704770B501F01F052B
:102DE00001260024C1F3421306FA05F2012B0FD08D
:102DF000022B0FD0838A4FEA11210088134206FA72
:102E000001F600EA060001D000B10124204670BDA1
:102E10008389F0E7038AEEE710B5C1F3421301F0AE
:102E20001F040121A140012B07D0022B07D0143031
:102E3000002A026805D00A4304E00C30F8E710309D
:102E4000F6E78A43026010BD7FB50446008A0D464E
:102E5000C98820F4405001432182A08941F20C61CD
:102E60008843A9882A8911436A8902431143A181B1
:102E7000A08A20F44071A8890843A0826846FFF721
:102E8000B1FC1A48844202D01948844201D1039807
:102E900000E00298A189090400EBC00101EB0010D9
:102EA000296801D5490000E08900B0FBF1F06422F7
:102EB000B0FBF2F109010B096FF018056B4300EB51
:102EC0008300A3891D044FF0320306D503EBC00035
:102ED000B0FBF2F000F0070005E003EB0010B0FBE0
:102EE000F2F000F00F00084320817FBD0010014088
:102EF000001401408088C0F308007047C1F3080146
:102F000081807047FEE7000030B591B000240121B8
:102F10008DF83C408805FFF729FC164D2846FFF741
:102F200005F94FF0006000901348019001200490D3
:102F30000FA80290402003900001CDE905400794BE
:102F400080010894CDE909400D9403200E94CDE949
:102F50000B4069462846FFF77BF901212846FFF719
:102F6000DBF8054801228021001FFFF727FF11B081
:102F700030BD0000B8640240041001402DE9F34F59
:102F80006E48ADF2244D6C494FF0000901604E4689
:102F90004D464F468346EA46CDF820940024DDF89E
:102FA0002404A046CDF81C04DBF80000B0B14FF4B7
:102FB00080120DF583616846FFF772FCB8B10128F5
:102FC0007ED0002F00DD6D1C052D7ADD1820FFF767
:102FD0006DFD1820FFF76AFDFFF7B8FB58A15AA056
:102FE00000F040FF5BA15DA000F03CFFF4E7DDF8DE
:102FF00018240025B2F1FF3F07D072B19DF80100FF
:10300000E1B2884219D0152088E00620FFF74EFD76
:1030100000200DF22C4DBDE8F08F16B1012E05D029
:103020007EE01520FFF742FD012679E00620FFF73C
:103030003DFD4320FFF73AFD76E0BCB10AF1030104
:10304000DDF81C04FDF731FC4B46474ADDF8181447
:10305000DDF81C0400F03CFFA0B31820FFF726FDAC
:103060001820FFF723FD6FF00100D2E79DF8030061
:1030700048B300200AF103013C4F02E03A54401CDF
:10308000491C0A780AB1FF28F8DD00233B54184692
:103090000DF5816701E03A54401C11F8012F202AF8
:1030A00001D01028F7DB3B543846FDF787FB6FF45F
:1030B00070218146C8420DDD1820FFF7F7FC03E0C0
:1030C00022E02AE01AE015E01820FFF7EFFC4FF0AD
:1030D000FF309EE700F060FD244925A000F0C2FE0D
:1030E0000DF5816125A000F0BDFE0620FFF7DEFC96
:1030F000432004E00620FFF7D9FC1AE00620FFF782
:10310000D5FC0127641C0BE01820FFF7CFFC18202A
:10311000FFF7CCFC6FF002007BE74320FFF7C6FC13
:10312000B8F1000F3FF440AFDDF8200400283FF471
:1031300035AF48466DE7000080A903003800002045
:10314000353535350000000057535049464C415342
:10315000480000003636363600000000574D435513
:10316000464C41534800000020000020340100205C
:1031700046696C654E616D650000000046696C65CE
:1031800053697A650000000003B40198410000987B
:1031900050EAC12018BF04204A0D18BF40F00100BA
:1031A00040F2FF72B2EB515F08BF40F0020001280D
:1031B00008BF052002B0704730380A2801D201202C
:1031C00070470020704770472DE9FE4F824600F19E
:1031D000200816460F46006931441C464FF001098D
:1031E000814205D93CA002F031FA0520BDE8FE8FEE
:1031F000D8F80810404601B18847F8070CD020469F
:10320000394601230090641C7F1C1A46504601F089
:10321000A7F9050054D1761E0121504602F08AF824
:1032200005004DD1AD208DF804000DF1040B34E004
:10323000B9F1000F13D05D466A1C3946504601F0C3
:1032400001F99AF8350008B1052200E0042220783F
:10325000A854A918607848704FF0000906E020785B
:103260008DF80500607801228DF80600002000909E
:103270000023D8F80450404601A9921CA847050035
:1032800003D01FA002F0E2F91AE0504602F06AFEF5
:10329000050015D1A41CB61EBF1C022EC8D20021E9
:1032A000504602F047F805000AD1012E0CD1012347
:1032B0001A4639465046009401F052F9050003D0F1
:1032C0000021504602F036F8D8F80C10404601B103
:1032D000884728468AE700004572726F723A204696
:1032E0006C61736820616464726573732069732014
:1032F0006F7574206F6620626F756E642E0D0A0004
:103300004572726F723A20466C61736820777269F9
:1033100074652053504920636F6D6D756E696361EC
:103320007465206572726F722E0D0A00F8B514462E
:103330000D46064668460121FF22FDF7FBFA2246AC
:103340002946304600F06AFDF8BD000073B586B02E
:10335000054600214FF0FF300291CDE903101548DA
:10336000CDE9000103AB02AA284601F008FF124E86
:103370000398012438B1CDE9006404AB07AA022107
:10338000284601F0FCFE029989B10498401C0ED138
:10339000012902D80948417841B1CDE9006404AB64
:1033A00007AA0121284601F0EAFE00E044700498D3
:1033B00008B070BDD5510008C133000820010020BD
:1033C00003785BB1036909688B4207D981780129C9
:1033D00006D0022902D10449497809B1002070477A
:1033E00040691060012070472001002010B54FF4A3
:1033F0004070FFF7A1F9A82000F0AEFA00F062F8E3
:1034000000F00EF84FF4165000F0B6F84FF41640E6
:1034100000F0F6F8FFF719FBBDE8104000F004BB20
:103420002DE9FC5F01213220FFF7A0F901248DF87E
:10343000044000258DF806500326DFF87CB04FF4D9
:1034400080478DF8056000978DF80740694658461B
:10345000FEF7C3FF8DF804408DF80650DFF85CA03E
:103460004FF440688DF80560CDF800808DF8074076
:1034700069465046FEF7B1FF8DF804408DF80650BE
:103480008DF805608DF807400D4C4FF40069CDF8BC
:10349000009069462046FEF7A0FF39465846FEF7E1
:1034A000EAFF41465046FEF7E6FF49462046FEF752
:1034B000E2FFBDE8FC9F0000001402400010024043
:1034C000000402407FB501211020FFF75BF9184886
:1034D000184900240068184D4008B0FBF1F0401E68
:1034E00001906320ADF80000ADF80240ADF808404F
:1034F00069462846FFF7CEFB01212846FFF79EFBD1
:10350000012211462846FFF7BCFB01212846FFF7A0
:10351000A2FB36208DF80C0002208DF80D008DF8EE
:103520000E4001208DF80F0003A8FFF7D3F87FBDF0
:1035300004000020400D0300001000400D484168C9
:1035400011B14168491E4160816811B18168491E0D
:103550008160C16811B1C168491EC160016911B1C2
:103560000169491E01614169002902D04169491E72
:10357000416170472400002070B5064686B00121E5
:103580000220FFF7F3F801211020FFF713F91A4D7D
:10359000072206212846FEF75CFF0722114628462F
:1035A000FEF757FF02218DF81410C0208DF815107A
:1035B000049000248DF8164001208DF8170004A90E
:1035C0002846FEF70AFFADF80440ADF80640ADF816
:1035D0000840ADF80C400C20084CADF80A000096ED
:1035E00069462046FFF730FC01212046FFF7DCFB4F
:1035F000FFF78AFC06B070BD0004024000100140D5
:103600002DE9F0438146012187B00846FFF7AEF867
:1036100001214804FFF7B6F8DFF88C800722022169
:103620004046FEF716FF072203214046FEF711FF32
:1036300002208DF8140003258DF8155000240C2667
:103640008DF81640012704968DF8177004A940469E
:10365000FEF7C3FEADF80440ADF80640ADF80840F3
:10366000ADF80C40114CCDF80090ADF80A606946F9
:103670002046FFF7E9FB26208DF818008DF8195039
:103680008DF81A508DF81B7006A8FFF723F8012259
:1036900040F225512046FFF7BFFB01212046FFF7EE
:1036A00083FB07B0BDE8F083000002400044004007
:1036B00038B504460178407809B1032802D00128C2
:1036C0000CD012E0A17804F10C02094800F054FB80
:1036D000204600F0CCFE40B1012038BD0523062273
:1036E0006946E06A02F072FCF6E7002038BD00008F
:1036F0009074000810B5017819B1807803280BD0B8
:103700000FE009A000F038FB00F058FB00F000FAD1
:1037100000F052FB012010BD12490120487000F05A
:10372000ABFC002010BD00005761726E696E673AF5
:1037300020536563746F72206865616465722063ED
:103740006865636B206661696C65642E20536574DF
:1037500020697420746F2064656661756C742E0D29
:103760000A000000200100202DE9F04188B0044645
:1037700000208DF814001F4690460E4608466569E5
:10378000FDF729F8202807D9202145A000F0F4FAF8
:10379000042008B0BDE8F081FF2214216846FDF73F
:1037A000C9F83046FDF717F8C0B28DF80C00384460
:1037B000143004970190B0F57F6F03D944A000F056
:1037C000DBFA6BE0681C06D12046019900F0AEFEE2
:1037D0000546401C62D005AA2046019902F0CAF8AD
:1037E0000028D6D1FF208DF818000822002003A958
:1037F00000F066F902909DF80C20314600F060F967
:103800000024029005E0012206A9029800F058F970
:103810000290641EF7D24146049A029800F050F9D3
:103820000024029005E0012206A9029800F048F960
:103830000290641EF7D26C460123062221462846D8
:1038400002F0C4FB20B91022211D281D00F0E6FA69
:1038500000289ED105F114009DF80C203146044645
:10386000FFF764FD002894D19DF80C0041462044E8
:10387000049AFFF75BFD00288BD1022306226946DC
:10388000284602F0A3FB002883D19DF814100029DC
:103890003FF47FAF174A012151707AE7062078E79D
:1038A0004572726F723A2054686520454E56206EFC
:1038B000616D65206C656E677468206973206D6F3B
:1038C0007265207468616E2025640D0A0000000096
:1038D0004572726F723A2054686520454E562073C7
:1038E000697A6520697320746F6F206269670D0AB9
:1038F000000000002001002030B58FB015460C00FC
:1039000004D1694600F04CFB88B16C46E06A8DB189
:10391000042306220DA902F059FB0500E06A4FEAD4
:1039200010344FEA043404F1010405D012E00420FD
:103930000FB030BD0323ECE704220DA9204601F0AF
:10394000C7FB012806D1022304220DA9204602F05C
:103950003DFB05462846EBE710B504460420FFF77B
:103960000FF90A484FF47A71047014FB01F1012237
:1039700042804FF0E020026942F0020202614161A0
:10398000016941F00101016110BD00001C0000202F
:1039900070B54FF0E02500216C69094AAB691278D7
:1039A0005043AA699A42FCD002D2A3EB020302E080
:1039B000A4EB02063344194413468142F1D370BD8F
:1039C0001C00002030B5044600788FB048B3A078C2
:1039D000022801D0032824D16068032304220DA902
:1039E000401C02F0F3FA4FF0FF350B950EE06846ED
:1039F00001F086FA9DF8000040B19DF80100022810
:103A000001D0032802D1684600F031FD6946204606
:103A100000F056FB0B90401CE9D12946606800F08D
:103A2000EBFA0FB0002030BD1CB5002000906946B5
:103A300001A800F0D7F9040009D1DDE9001000F079
:103A400051F8040003D100F05BF9040008D006A18E
:103A500007A000F091F90F4800F08EF920461CBD38
:103A600001A10DA0F5E70000342E302E300000003B
:103A700045617379466C61736820562573206973BC
:103A800020696E697469616C697A65206661696C28
:103A90002E0D0A000C73000845617379466C617342
:103AA000682056257320697320696E697469616C9A
:103AB000697A6520737563636573732E0D0A000060
:103AC00010B5C043064C07E011F8013B4340DBB2A0
:103AD00054F8233083EA1020521EF5D2C04310BDA3
:103AE0000C6C000810B520B1084C227812B10020EF
:103AF00010BDFEE700226260C4E9021000F016F972
:103B00000028F5D10121217010BD00002001002006
:103B10002DE9F0411F4E86B00025F06838B1B0683D
:103B200030B100F049F94FF0FF38746809E0FEE762
:103B3000FEE74146204600F05FFA050023D104F578
:103B40008054706800F580308442F2D3002417E07E
:103B5000F06804EB440700EB870083681BB94068FA
:103B6000FCF739FE0346CDF81480F06800EB8701BE
:103B70004A6850F827106846FFF7F6FD1DB9641C27
:103B8000B0688442E4D300F019F906B02846BDE8D5
:103B9000F0810000200100200146084810B50068AF
:103BA00000F00EF9041E02D0012C05D101E004A0A2
:103BB00000E00DA000F0E0F8204610BD300100202C
:103BC000457261736564206261636B757020617218
:103BD0006561206170706C69636174696F6E204FFC
:103BE0004B2E0D0A000000005761726E696E673A35
:103BF000204572617365206261636B75702061722C
:103C00006561206170706C69636174696F6E2066B4
:103C100061756C74210D0A0010B5002380220A49D9
:103C200000F034F8041E08D00146074800F070F890
:103C300020B1054900200855084610BD03A000F03A
:103C40009BF8002010BD0000505A00205761726E92
:103C5000696E673A2054686520454E562076616C3F
:103C600075652069736E277420737472696E672E90
:103C700020436F756C64206E6F74206265207265DE
:103C80007475726E65640D0A00000000F0B504469C
:103C900013488DB01E46007815460F4678B100F0E7
:103CA0008BF820460024694600F07AF998B10EB1ED
:103CB000029830600298A84207D2044606E009A0A4
:103CC00000F05AF800200DB0F0BD2C4622463946CF
:103CD0000C9800F093F800F071F82046F3E700002C
:103CE00020010020454E562069736E277420696EAE
:103CF000697469616C697A65204F4B2E0D0A00006A
:103D000002494FF4803200200A60704730010020E1
:103D1000002206E0835C203B5F2B01D3002070472C
:103D2000521C8A42F6D301207047000030B595B08E
:103D3000002500F041F800210C48CDE900010B46B8
:103D40000A460FA801F01BFA094C0022094B114644
:103D500002A800F0F3F8617811B100F08DF9F4E7F2
:103D600000F02CF815B0284630BD0000F5360008EC
:103D700020010020B13600080FB40AA010B503AC32
:103D800000F05EF8224609480299FCF745FB074916
:103D900007A000F055F807A0FCF76AFB10BC5DF81F
:103DA00014FB00005B466C6173685D00CD59002018
:103DB000257300000D00000072B6704762B67047B0
:103DC00070B50E460546002401F028FC290500D0F8
:103DD000FEE73246294601F081FB00B1012420466E
:103DE00070BD000010B5044A02600F200024086076
:103DF00001F018FC204610BD0C7000082DE9F041C0
:103E000017460D460646002401F008FC2B463A46AC
:103E1000314601F037FC2046BDE8F0812DE9F04144
:103E200017460D460646002401F0F8FB2B463A469D
:103E3000314601F0DDFC00B103242046BDE8F081ED
:103E40000FB410B503AA05480299FCF7E5FA034937
:103E500003A0FCF70DFB10BC5DF814FBCD5900204E
:103E60002573000070B505460C460846FCF7B3FC08
:103E7000024621462846BDE8704000F001B8000027
:103E800070B50B4B0646144618780D4658B1FFF72F
:103E900093FF22462946304601F0F2F90446FFF727
:103EA0008DFF204670BD03A0FFF766FF072070BDA1
:103EB00020010020454E562069736E277420696EDC
:103EC000697469616C697A65204F4B2E0D0A000098
:103ED00070B50C4601461068154602199A4200D981
:103EE0001C1A0A4A126810442246FFF797FF061E62
:103EF00002D0032E07D103E028682044286002E0A6
:103F000003A0FFF739FF304670BD000030010020EC
:103F10005761726E696E673A2057726974652064E2
:103F200061746120746F206261636B7570206172CF
:103F30006561206661756C74210D0A002DE9F04100
:103F400086B04FF0FF361D46174688460446019658
:103F50001DE00022694601F03FF8C0B9BDB19DF8EF
:103F60000100022801D0032811D1E66208E02046B2
:103F700000F0C6FF3A4641462046A84700280BD12C
:103F80002146684600F09CF8E062401CEFD168468C
:103F900000F0B6F8411CDCD106B0BDE8F0810000AD
:103FA00038B50C4600228DF800200146034B6A46C6
:103FB0002046FFF7C3FF9DF8000038BDC13F000851
:103FC00070B5044615460E460846FCF704FCC2B21E
:103FD000A078904200D90246207840B1607802284B
:103FE00005D1314604F10C00FCF714FC08B10020A7
:103FF00070BD0120287070BD7FB505460C460005D8
:1040000000D0FEE74FF480512846FFF7D9FE002884
:104010001AD1FF2210216846FCF78CFC01220421F2
:10402000684601F071F9012204210DF1010001F04F
:104030006BF90648CDE901044FF0FF3003901022E0
:1040400069462846FFF7EAFE04B070BD45463430A5
:1040500004490A885206FCD5024AC1B2121D1180D9
:104060007047000000440040007810B10868401C10
:10407000086000207047000010B58AB000240D4889
:10408000CDE90004234608AA0121089402A801F002
:1040900076F80898012808D80748CDE900040023DD
:1040A0001A46194602A801F06AF8044844700AB09A
:1040B00010BD000069400008C5390008200100203B
:1040C00038B542784FF0FF35012A17D0CA6A531C21
:1040D00011D0436803F580539A420FD848681418EA
:1040E000A3420BD350B106226946204600F0F0FFF0
:1040F00020B1204638BD44681034F4E7284638BD66
:104100000B49024640684968431C0BD0D268531CD7
:104110000AD000EB023001F58031884201D34FF024
:10412000FF3070470846704700F58050F3E7000005
:104130002001002070B5491E00220C46802309E0B2
:1041400000EBD10501F007062D7823FA06F635427B
:1041500002D0521C491EF3D2A01A70BD2DE9FC41B9
:1041600000681E49884236D01D49884233D11D4F10
:1041700005220D213846FEF76CF905220E2138463E
:10418000FEF767F905220F213846FEF762F94FF472
:104190006040009002208DF8040000258DF8065044
:1041A00003268DF8056001248DF8074069463846DE
:1041B000FEF713F90B492003183108808DF80440ED
:1041C0008DF8065000908DF805608DF8074069461F
:1041D0003846FEF702F9BDE8FC81000000300140DE
:1041E0000038004000040240FEB5044601F0A2FA87
:1041F000002862D1206930B1A08A20B1A06910B135
:10420000207F002848D19F218DF8081003210091BC
:10421000656A04F1200001AB012202A9A84705004C
:1042200025D03FA001F012FA280046D1474B257B4C
:1042300000EB400203EBC2010E79AE4221D14E7970
:10424000677BBE421DD18E79A77BBE4219D100EBA0
:10425000400053F83000A06003EBC200806820618A
:104260008889A0820869A061087D20770CE09DF80C
:10427000041021739DF8051061739DF80610A17359
:10428000D2E7401C1128D3D3206990B1A08A80B115
:10429000A06970B1207F60B100212C4A237B0846C1
:1042A000803A02EBC0052D799D4207D152F83010BB
:1042B00007E027A001F0CAF90120FEBD401C10282C
:1042C000EFD359B1A26822B130A0236901F0BEF941
:1042D00008E03AA0226901F0B9F903E042A021699F
:1042E00001F0B4F9204600F003FF0028E5D1217D5C
:1042F000490706D500220121204601F08FFA002847
:10430000DBD12169B1F1807F06D903B02046BDE839
:10431000F040012100F070BF002184F83510FEBD8F
:104320004572726F723A205265616420666C6173E7
:104330006820646576696365204A454445432049A1
:1043400044206572726F722E0D0A0000746A0008B4
:104350005761726E696E673A205468697320666CA3
:1043600061736820646576696365206973206E6F88
:104370007420666F756E64206F72206E6F74207388
:104380007570706F72742E0D0A00000046696E64BD
:10439000206120257320257320666C61736820637B
:1043A0006869702E2053697A6520697320256C64D2
:1043B0002062797465732E0D0A00000046696E64F0
:1043C000206120257320666C6173682063686970C2
:1043D0002E2053697A6520697320256C64206279E8
:1043E0007465732E0D0A000046696E6420612066B4
:1043F0006C61736820636869702E2053697A652048
:10440000697320256C642062797465732E0D0A002F
:104410001CB5FEF7EBFF07490320CDE9000100239F
:104420004FF4006204A1064802F0CEF801F048FC07
:1044300000201CBD000000207570646174650000E0
:10444000C15D000830B590F835000D4608B1042371
:1044500000E00323002007E0191ACC00083C25FAED
:1044600004F11154401CC0B29842F5D330BD2DE97F
:10447000F043054640789DB04FF00009022804D172
:10448000002229461046FFF737FA09A86968FEF7A7
:104490005DFF8046B0F1FF3F18D024216846FCF74D
:1044A00073FAAA7805F10C016846FCF794FA0FA993
:1044B0006846FFF775FD88BB012306221CA940460C
:1044C0006E6801F083FD0024361F1AE006201DB03F
:1044D000BDE8F08304F12000B04201D2202700E0C3
:1044E000371BE96A201D08443A466946FFF786FCF7
:1044F00008EB04003A466946001DFFF78FFC814631
:104500003C44B442E6D3022306221CA9404601F0F3
:104510005DFD002209A8696801F02CFA01222946F4
:104520000020FFF7E9F94846D1E700002DE9F04106
:104530000A4D0E460746002431463846FEF706FF70
:104540000146401C02D1687800B114B10846BDE8AC
:10455000F081FFF791FD0124EEE70000200100202B
:104560002DE9F84F824600F1200915460F460069F3
:104570002944DDF828B01E464FF00008814205D9D5
:1045800033A001F063F80520BDE8F88FD9F80810D2
:10459000484600294ED088474CE00121504600F0A3
:1045A000C9FE5FEA000847D1334A0220394602F8C3
:1045B000010B5046FFF746FF9AF8350008B1052079
:1045C00000E004208046B7FBF6F006FB107060B1F7
:1045D000B7FBF6F006FB1070301AA84209D2B7FB01
:1045E000F6F006FB1070341A04E0B54201D93446E7
:1045F00000E02C4620482D1B2744404422465946C3
:10460000FCF753F900200090D9F804C008EB04022D
:10461000484600231849E0475FEA000803D017A086
:1046200001F014F808E0504601F09CFC5FEA000835
:1046300002D1A344002DB0D10021504600F07AFEF3
:10464000D9F80C10484601B1884740469CE7000065
:104650004572726F723A20466C61736820616464BF
:1046600072657373206973206F7574206F662062A2
:104670006F756E642E0D0A00C85700204572726F68
:10468000723A20466C6173682077726974652053B2
:10469000504920636F6D6D756E6963617465206547
:1046A00072726F722E0D0A002DE9F041184E0F46FE
:1046B0000446F5683068001D01F082F938B93068A9
:1046C00090F82C1001208840316981433161601CD1
:1046D00007D137B13168BDE8F0410E48091D01F03E
:1046E000A8B930682C44AC424460316805D2306CC3
:1046F000BDE8F041091D01F084B9F06B091D01F01E
:1047000080F9B06A844200D2B462BDE8F081000052
:10471000540000208C0700202DE9F041054601F0EF
:1047200095F92E4EB068401CB06030682C4F10B127
:10473000706938B32CE03560B068012828D10024B6
:1047400004EB840007EB800001F04DF9641C0A2C97
:10475000F6D32348C83001F046F92148DC3001F097
:1047600042F91F48F03001F03EF91E4801F03BF9D4
:104770001C48143001F037F91A483C38F063143003
:10478000306405E03068E96AC06A884200D8356064
:10479000706A0121401C70622864E86A32698140B5
:1047A0001143316100EB800007EB8000291D01F00F
:1047B00040F901F06BF9706900280CD03068E96AA3
:1047C000C06A884207D208494FF080500860BFF3A2
:1047D0004F8FBFF36F8FBDE8F081000054000020C1
:1047E000740600207807002004ED00E010B501F009
:1047F0002DF90E4C2068A0B90D4801F0F4F80C48D2
:10480000143001F0F0F80A48E06014302061002212
:104810000C210A2001F084FC206010B105A101F0F8
:10482000B3F9BDE8104001F031B900009800002054
:10483000A0070020546D72510000000030B4026CDB
:104840000B46002A0BD0C1681144C1608468A142A4
:1048500001D30168C16030BC1846FCF726B830BCF3
:1048600070472DE9F041856B174604460026026C1F
:1048700082B1C7B1E068FCF718F8E168206C091A4A
:10488000E1602268914202D2A168081AE060022F1A
:1048900016D017E02068A8B9A06801F039FF0646D5
:1048A0000020A0600EE06068FBF7FFFF216C6068ED
:1048B00008446060A168884204D32068606001E019
:1048C00005B16D1E6D1CA5633046BDE8F08110B5C5
:1048D0000446006B01F0EEF82046BDE8104001F000
:1048E000E9B8000010484FF4A041420706D0C01DAF
:1048F0000D4920F00700411AC1F5A0410B4A0023E1
:104900000144C2E900030839103A21F0070111609F
:104910004B600B600B1AC0E9001393604FF000402E
:104920005360D06070470000C8070020C800002016
:10493000134E144DA6F582774FF08058DFF848905B
:1049400011E001F083F8F068C468201D01F038F828
:10495000A868401EA8606868401E686001F096F86C
:104960002046FFF7B4FF68680028EAD138680128BC
:10497000F9D9C9F80080BFF34F8FBFF36F8FF2E70B
:10498000780700205400002004ED00E02DE9F05FDE
:104990000E46DDE90B941746834691009A460A9D20
:1049A000A522206BFBF7C6FF6FF00301206B01EB24
:1049B0008701084420F00707780707D0502080F3CC
:1049C0001188BFF34F8FBFF36F8FFEE74FF00008E2
:1049D00066B100202218315C82F83410315C11B1CC
:1049E000401C0A28F6D384F83D8001E084F8348026
:1049F0000A2D00D30925E562C4E91258201D00F0F4
:104A0000FDFF04F1180000F0F9FF2461C5F10A0070
:104A10006462A061C4F85080C4F8548084F858805F
:104A200052465946384600F055FA2060B9F1000F59
:104A300001D0C9F80040BDE8F09F000030B5114931
:104A400000E011460A688242FBD34B685C1884423E
:104A500003D1406818444860084643681C189442D3
:104A600009D1084C103C2468A24209D052681A446B
:104A700042600A6812680260814200D0086030BD5E
:104A80000460F9E7C800002070B5002441600B4DB8
:104A90000061914206D8D11A8269914206D2011D65
:104AA000286907E09A4203D2994201D3012403E026
:104AB000011DE86800F0A5FF204670BD98000020A9
:104AC00010B5044600F0C2FFA06B20B1002400F036
:104AD000DDFF204610BD0124F9E7000030B585B0A8
:104AE000394D67E00198002864DB039C606910B1D0
:104AF000201D00F065FF04A800F0D8F802460198D8
:104B00000A2857D2DFE800F00505052D334A0505D0
:104B10002D3394F8280040F0010084F82800029812
:104B2000A169034601442046FFF7AEFF68B3216A3E
:104B30002046884794F8280040073BD50020009085
:104B40000298A169002342181946204601F0EEFEA2
:104B5000D8B9502080F31188BFF34F8FBFF36F8F08
:104B6000FEE714F8280F20F00100207022E094F8EE
:104B7000280040F0010084F828000298A06128B1C4
:104B8000811813462046FFF77FFF13E0502080F383
:104B90001188BFF34F8FBFF36F8FFEE794F82800A3
:104BA000810703D4204600F085FF03E020F00100D8
:104BB00084F82800002201A9286801F02FFC0028B1
:104BC00090D105B030BD0000980000202DE9FC41D7
:104BD0000F46054601F0B0F801A800F067F804465A
:104BE000019818B101F01AFEBDE8FC81254EAFB165
:104BF00030690068D0B30027291B3A46306800F0BE
:104C0000D5FF01F00BFE0028EED11F494FF0805078
:104C10000860BFF34F8FBFF36F8FE5E7A542EBD876
:104C200001F0FCFDF0682746C068C468201D00F054
:104C3000C7FE94F82800410719D5A0692B464119F1
:104C40003A462046FFF720FFA8B100200346014660
:104C500000902A46204601F069FE60B9502080F39A
:104C60001188BFF34F8FBFF36F8FFEE707E020F08F
:104C7000010084F82800216A20468847B4E701270C
:104C8000BAE700009800002004ED00E00648C16B80
:104C9000096829B1C16BC968C968496881627047F0
:104CA0004FF0FF31FAE700005400002070B50546D0
:104CB00001F0C4FC064E0446B068844203D200F002
:104CC00009F8012000E0002028602046B46070BD93
:104CD00098000020F8B5194E20E0C068C468056847
:104CE000201D00F06DFE216A2046884794F82800B8
:104CF000400713D5A0692844A84206D92461606002
:104D0000211DF06800F07DFE08E00020034601460A
:104D100000902A46204601F009FE38B1F06801688B
:104D20000029DAD13169C6E90310F8BD502080F3BB
:104D30001188BFF34F8FBFF36F8FFEE798000020FD
:104D400008484068401C4FF0500080F3118804D0A0
:104D5000BFF34F8FBFF36F8FFEE7BFF34F8FBFF3EC
:104D60006F8FFEE7AC000020084CE068016839B1A5
:104D7000002139B10020FFF729FFFFF7AFFEF4E76C
:104D80000121F6E7C0680068F5E700009800002000
:104D90002DE9F041044600F059FE94F9455004F124
:104DA000240609E0606A48B1304601F0FDFC08B114
:104DB00000F04CFF6D1E6DB2002DF3DC4FF0FF369E
:104DC00084F8456000F062FE00F040FE94F9445023
:104DD00004F1100709E0206948B1384601F0E4FC0D
:104DE00008B100F033FF6D1E6DB2002DF3DC84F8C6
:104DF0004460BDE8F04100F049BE00002DE9F041FB
:104E00000546002600F098FF314F386808B9FFF7D3
:104E100069FDF86805424BD1C5B3083568070ED067
:104E200005F00700C0F108000544680707D05020CE
:104E300080F31188BFF34F8FBFF36F8FFEE72DB361
:104E40007868854234D8224910310846046801E068
:104E5000214604466068A84202D220680028F7D1A3
:104E60003868844224D00E6820680860606808367C
:104E7000411B10290FD96019420708D0502080F338
:104E80001188BFF34F8FBFF36F8FFEE710E04160D3
:104E90006560FFF7D3FD61687868401A7860BA688A
:104EA000904200D2B860F86801430020C4E90001D4
:104EB00001F0B4FC700707D0502080F31188BFF3D5
:104EC0004F8FBFF36F8FFEE73046BDE8F0810000E3
:104ED000B800002010B5031F4FF080741C601B1F2A
:104EE00021F001011960191F044B0B6014390A608D
:104EF000091F6FF0020244380A6010BD414D0008DE
:104F00002DE9F0478EB004464FF00008C146C06A54
:104F100014226946FEF772FF06216846FFF70AF978
:104F2000C0B26070019E6660711CC24602D0B6F5C8
:104F3000803F11D914216160052807D005206070D9
:104F4000052306226946E06A01F040F884F800A0D3
:104F500002200EB0BDE8F087A6F6F1704FF20F0107
:104F6000884200D2FEE700250C3E15E005F1200046
:104F7000B04201D2202700E0771BE16A05F10C0066
:104F800008443A4605A9FEF739FF3A4605A94046C6
:104F9000FEF796FD80463D44B542E7D30299414570
:104FA00004D084F800A04FF0020913E00120207023
:104FB000E56A9DF80C20143504F10C012846FEF733
:104FC0001DFF9DF80C00284420630498A0609DF804
:104FD0000C00A0704846BCE7F0B50646002591B02D
:104FE00017460C46000500D0FEE77CB110220DA943
:104FF0003046FEF703FF66600E9828490026A06041
:10500000884204D02670072011B0F0BDFEE70120D1
:1050100020700F98E06004210DA8FFF78BF86070F6
:1050200004210DF13500FFF785F8A07027B3266144
:1050300060684FF47F61103060616078012802D0B1
:10504000022802D028E0216126E04FF0FF302161E4
:105050000B901AE06846FFF753FF9DF8000060B917
:105060009DF80100012808D0052806D00CA00B9956
:10507000FEF782FE022526610EE060690199084470
:10508000606120690199401A206169462046FFF756
:1050900017F80B90401CDDD12846B5E74546343063
:1050A0004572726F723A2054686520454E5620282A
:1050B000403078253038582920435243333220631A
:1050C0006865636B206661696C6564210D0A000088
:1050D00070B515460C000AD0E91DCA082146FEF736
:1050E0008DFE29462046BDE87040FFF723B8FEE755
:1050F0002DE9FC41064600F12004662000278DF8CA
:105100000400009765683B46012201A92046A84794
:10511000050005D00FA000F099FA2846BDE8FC81F3
:10512000304600F01FFF99208DF8050000970023FE
:10513000656801220DF105012046A847040004D14D
:10514000304600F00FFF040002D002A000F07EFA0B
:105150002046E3E74572726F723A20466C617368CD
:105160002064657669636520726573657420666185
:10517000696C65642E0D0A006420FEF709BC2DE9F8
:10518000F0470646DDE908574FF0FF309846914654
:105190000C46706015E0002231465046FFF71CFFB8
:1051A00014B17078A0420CD127B13A46314650462E
:1051B000FFF712FF2DB1424649463046A847002866
:1051C00006D13046FEF79CFF8246B0F1FF3FE2D1A8
:1051D000BDE8F087037863B14078012802D0022847
:1051E00004D006E00868401C086002E01068401C1B
:1051F00010600020704700007CB50C460546012178
:1052000000F098F800281BD10CB1B72000E0E9208D
:105210008DF804000020009003466E6A012201A967
:1052200005F12000B047060002D024B105A103E03B
:1052300085F8354003E005A106A000F007FA3046E6
:105240007CBD0000456E746572000000457869748D
:10525000000000004572726F723A20257320342DD1
:10526000427974652061646472657373696E672046
:105270006D6F6465206661696C65642E0D0A0000BF
:105280002DE9F04116460F00804619D01C4CFBF763
:10529000A2FA811920461431FFF748F9401C15D0B5
:1052A000A4F134014046FEF77BFE050011D0002238
:1052B000A4F134014046FEF71FFB040009D00FE0C3
:1052C00001220021FEF718FB044617E00620BDE886
:1052D000F08133463A4641460948FEF745FA04460E
:1052E0003DB134B90649012234394046FEF704FB8A
:1052F00004460448407808B1FEF7BEFE2046E6E7C3
:10530000085B00202001002070B51546C91D064627
:105310004FF0FF34C908FF22FBF70CFB45B16D1EAF
:10532000EC0805F00702305D8021D14088433055FC
:10533000204670BDFEB50C00054601D0062000E0F9
:1053400004208DF804000020009003466E6A0122BC
:1053500001A905F12000B04700280FD102A9284675
:1053600000F0DCF9002809D1002C07D09DF80810C6
:10537000890703D402A000F069F90220FEBD0000F5
:105380004572726F723A2043616E277420656E61B8
:10539000626C6520777269746520737461747573CB
:1053A0002E0D0A007CB5816A064600F1200409B181
:1053B0002046884701213046FFF7BCFF050025D174
:1053C000C7208DF80400307D010728460DD59421B3
:1053D0008DF8051080218DF806109A218DF80710A0
:1053E000009000230422656803E0009000236568B4
:1053F000012201A92046A847050003D008A000F01B
:1054000025F903E0304600F0ADFD054600213046A9
:10541000FFF790FFE16809B12046884728467CBD28
:105420004572726F723A20466C61736820636869D6
:10543000702065726173652053504920636F6D6DF4
:10544000756E6963617465206572726F722E0D0AE4
:105450000000000070B50446FEF7C6FE050008D047
:10546000002084F8340006A0216800F0EFF82846F8
:1054700070BD012084F834000DA02168F5E700001C
:105480004572726F723A20257320666C61736820D2
:1054900064657669636520697320696E6974696102
:1054A0006C697A65206661696C2E0D0A0000000047
:1054B000257320666C617368206465766963652076
:1054C000697320696E697469616C697A65207375A6
:1054D00063636573732E0D0A000000002DE9FE4F13
:1054E000804600F1200916460D4600690027314428
:1054F000814205D934A000F0A9F80520BDE8FE8F4F
:105500002DB9B04203D14046FFF74CFFF6E7D9F87A
:1055100008104846002949D0884747E098F81CA061
:1055200040460121D8F81840FFF704FF07003FD19B
:105530008DF804A00DF1050229464046FEF782FFD2
:1055400098F8350008B1052200E004220020009000
:10555000D9F804704846002301A9B847070003D0D2
:1055600023A000F073F823E0404600F0FBFC0700A6
:105570001ED1B5FBF4F004FB105098B1B5FBF4F06C
:1055800004FB1050201AB04212D2B5FBF4F004FB19
:105590001050201A361AB5FBF4F004FB1050201AF4
:1055A000054403E0A64203D9361B2544002EB5D19D
:1055B00000214046FFF7BEFED9F80C10484601B165
:1055C000884738469AE700004572726F723A204663
:1055D0006C61736820616464726573732069732001
:1055E0006F7574206F6620626F756E642E0D0A00F1
:1055F0004572726F723A20466C6173682065726101
:1056000073652053504920636F6D6D756E696361DA
:105610007465206572726F722E0D0A000048704723
:10562000D000002070B50025074E2C4604EB041076
:1056300006EB80004460FFF70DFF00B10546641CD7
:10564000F4D0284670BD0000D00000200FB410B583
:1056500003AC08A0FAF70CFF23464FF4807107480B
:10566000029AFAF7EBFE054905A0FAF701FF10BC14
:105670005DF814FB5B534655445D0000CD58002097
:1056800025730A002DE9FE431746054600F1200464
:105690008846C81929699946884205D915A0FFF797
:1056A000D5FF0520BDE8FE83A16809B120468847E3
:1056B000284600F057FC060015D103208DF80400A1
:1056C0000DF1050241462846FEF7BCFE95F835006F
:1056D00008B1052200E00422009765684B4601A945
:1056E0002046A8470646E16809B12046884730466B
:1056F000D8E700004572726F723A20466C61736899
:105700002061646472657373206973206F757420FF
:105710006F6620626F756E642E0D0A001CB505223F
:105720008DF80420012200920B46446A01A9203022
:10573000A0471CBD70B5264D04462649286886B092
:1057400088420AD02449884207D101210220FDF76E
:105750000DF801218803FDF715F81D48FEF7FEFC42
:105760000026ADF800604FF48270ADF80200ADF88D
:1057700004600220ADF806000120ADF808004002E8
:10578000ADF80A000820ADF80C000720ADF80E6057
:10579000ADF810002868FDF7DDF869462868FDF7C8
:1057A00026F900212868FDF7C1F801212868FDF7D6
:1057B000C7F80A4860620A48A0620A48C4E90B05B3
:1057C0000948A0630948E06306B0304670BD000098
:1057D000140100200030014000380040A5580008A6
:1057E0009D580008A158000879510008C0270900F9
:1057F000F8B504460020A58AEE0706D000934FF4C2
:1058000080732046FEF7ACFEF8BD6D07FCD501B0F5
:105810002046BDE8F040FDF7D7BC00002DE9FC4173
:10582000174600F12005002651B150208DF80400E4
:10583000009600236C68012201A92846A04702E0D7
:105840000121FFF777FD04000DD101208DF8040040
:105850008DF80570009600236C68022201A9284685
:10586000A047040002D003A0FFF7F0FE2046BDE8E9
:10587000FC8100004572726F723A2057726974653C
:105880005F73746174757320726567697374657290
:10589000206661696C65642E0D0A000072B670475F
:1058A00062B670472DE9F84F0469894698469246DA
:1058B00000270A9E21896068FCF7DBFD0AEB0600E1
:1058C000002500902FE0554502D219F801BB01E0F8
:1058D0004FF0FF0B4FF47A7601E0C6B1761E02213D
:1058E0002068FDF779F80028F7D0F7B95946206805
:1058F000FDF77BF84FF47A7601E046B1761E012180
:105900002068FDF769F80028F7D077B901E004278F
:105910000BE02068FDF767F8C0B2554501D308F8E1
:10592000010B00986D1CA842CDD821896068FCF756
:10593000A2FD3846BDE8F88F30B502780021034655
:105940002D2A01D02B2A00D1581C6FF02F04027889
:1059500052B1A2F130050A2D06D201EB810104EB10
:1059600041011144401CF2E718782D2800D149422A
:10597000084630BD38B5144643780022012B02D0CA
:10598000022B08D01AE0406802230422694600F086
:105990001DFB024612E00369342B02D3591A342945
:1059A00009D2406803230422694600F00FFB024637
:1059B00024B1012001E00CB100202070104638BD58
:1059C000D0E9013201699A60D0E901235A604A683E
:1059D000824201D182684A60002202610868401E4A
:1059E00008600868704700F108014FF0FF32C0E915
:1059F0000112C16001610021016070470021016155
:105A0000704730B50C68621C02D000F1080202E059
:105A1000026904E01A4653681D68A542FAD9536822
:105A20004B6099608A60516008610168491C01609F
:105A300030BD42684A6093688B609368596091609A
:105A400008610168491C016070470000502080F324
:105A50001188BFF34F8FBFF36F8F0A494868401C0E
:105A6000486001280CD10848006810F0FF0F07D0EB
:105A7000502080F31188BFF34F8FBFF36F8FFEE785
:105A800070470000AC00002004ED00E008494868C1
:105A900028B1401E486001D180F311887047502022
:105AA00080F31188BFF34F8FBFF36F8FFEE70000C5
:105AB000AC00002070B5002827D0144DA0F10804D8
:105AC0006068E968084207D1502080F31188BFF36D
:105AD0004F8FBFF36F8FFEE722683AB1502080F3FB
